:10000000112475334675344585900F120195111AE8
:10001000113731E5114C310580EE7A0878207600F1
:1000200008DAFB22752A007590FF111A78307602E3
:10003000753101753201227830E6FB7833E608C06D
:1000400000C003317AD003D000DBF22274332530B4
:1000500014F8E68628AF31BF0023AE32BE0004316B
:100060003401F8BE0107311E85323101F8BE0204A9
:10007000313401F8314C85323101F801F8BF0126E5
:10008000AE32BE0007313485323101F8BE01043191
:100090001E01F8BE0207316285323101F8BE0358F5
:1000A000311E01F801F8BF0226AE32BE00043162F3
:1000B00001F8BE0107311E85323101F8BE0204315C
:1000C0006201F8BE0332314C85323101F801F8BFCC
:1000D0000326AE32BE0007313485323101F8BE014D
:1000E00004314C01F8BE0207316285323101F8BE9D
:1000F0000306314C01F801F8F6188629A62885294F
:1001000028B833F5227E207A087B017820E608F4AF
:10011000F5B08BA0EB23FB31EEDAF2DEEA22C0066B
:10012000C0E0540F60031480022407FED0E054F0B6
:060130004ED00622C006BD
:10013600C0E054F0C460031480022407C4FED0E07B
:10014600540F4ED00622C006C0E0540FB40703E495
:10015600800104FED0E054F04ED00622C006C0E076
:1001660054F0C4B40703E4800104C4FED0E0540F85
:100176004ED00622C0E0540F75F02025F0F8D0E0EE
:10018600C4540FFB740123DBFD86284528F6227430
:10019600011201C160047532002274021201C160AD
:1001A600047532012274041201C160047532022200
:1001B60074081201C1600375320322C000C0D0F872
:1001C600E50FF458D0D0D00022900800E52A93FC21
:1001D6007433253014F8E66C7004052A0530229035
:1001E6000800E52A93317A22C004C003C0027C05C8
:1001F6007B207A01DAFEDBFADCF6D002D003D004EB
:1002060022C004C003C0027C017B607A00DAFEDBF8
:0A021600FADCF6D002D003D0042277
:0A0800004343434343434343434350
:00000001FF
